:020000040800F2
:1000000048250020A5010008831900083B180008B6
:1000100081190008B90200085922000800000000F8
:10002000000000000000000000000000B11B0008FC
:10003000BB0200080000000085190008B51B00087D
:10004000BF010008BF010008BF010008BF01000890
:10005000BF010008BF010008BF010008BF01000880
:10006000BF010008BF010008BF010008BF01000870
:10007000BF010008BF010008BF010008BF01000860
:10008000BF010008BF010008BF010008BF01000850
:10009000BF010008BF010008BF010008BF01000840
:1000A000BF010008BF010008BF010008ED1C0008E7
:1000B000BF0100080000000000000000BF010008B0
:1000C000BF0100080000000000000000BF010008A0
:1000D000000000004D220008BF01000800000000E1
:1000E000BF010008BF010008000000000000000080
:1000F0000000000000000000000000000000000000
:10010000000000000000000000000000BF01000827
:100110000000000000000000BF010008BF0100084F
:10012000BF010008BF010008BF010008BF010008AF
:10013000BF010008000000000000000000000000F7
:10014000BF010008BF010008BF010008BF0100088F
:10015000BF010008BF010008BF010008BF0100087F
:10016000BF010008BF010008BF0100080000000037
:10017000BF010008BF0100080000000000000000EF
:10018000BF010008BF010008BF010008DFF810D060
:1001900000F080F800480047D5220008AFF3008047
:1001A000482500200648804706480047FEE7FEE74E
:1001B000FEE7FEE7FEE7FEE7FEE7FEE7FEE7FEE717
:1001C000A91C00088D0100082DE9F05F05460020FC
:1001D00092469B4688460646814640241BE02846B8
:1001E00041464746224600F044F853465A46C01A54
:1001F000914110D311461846224600F02BF82D1AD3
:1002000067EB01084F4622460120002100F022F84A
:1002100017EB00094E41201EA4F10104DFDC484623
:1002200031462A46434600F000B830BCBDE8C09FC6
:10023000D2B201E000F8012B491EFBD27047002228
:10024000F6E710B513460A4604461946FFF7F0FFD5
:10025000204610BD202A04DB203A00FA02F10020DB
:1002600070479140C2F1200320FA03F319439040F4
:100270007047202A04DB203A21FA02F0002170475F
:1002800021FA02F3D040C2F12002914008431946FE
:1002900070470000064C074D06E0E06840F001039F
:1002A00094E8070098471034AC42F6D3FFF772FF8A
:1002B000A0230008C0230008FEE7704710B50A48D5
:1002C00002F024F804000DD00749084A486850603D
:1002D0000968116080472246BDE8104002490020AD
:1002E00002F01EB810BD00001800002038210020C8
:1002F00010B590F825100024022903D00421C16311
:1003000001241AE001680A6822F00E020A600168FE
:100310000A6822F001020A6090F84410036C01F0B0
:100320001C02012101FA02F25A6080F82510002116
:1003300080F82410816B01B18847204610BD000071
:1003400070B5044600F0E4F80546601C02D004488D
:100350004068044400F0DCF8401BA042FAD370BDB2
:10036000080000202DE9F84FDFF870B100230127C5
:100370004FF0030A4FF00F090BF1040EA7E000BF86
:1003800007FA03F6324070D04C68022C01D0122CD0
:1003900010D1DC0800EB8408D8F820405D074FEA54
:1003A000D56C09FA0CF5AC430D6905FA0CF525433B
:1003B000C8F82050D0F800805D0091F804C00AFA17
:1003C00005F40CF0030C28EA04080CFA05FC4CEACE
:1003D000080CC0F800C0D1F804C0BCF1010F08D06F
:1003E000BCF1020F05D0BCF1110F02D0BCF1120F0D
:1003F00016D1D0F808C0D1F80C802CEA040C08FA09
:1004000005F848EA0C08C0F80880D0F804C02CEAC7
:10041000060C0E79C6F300169E4046EA0C064660AE
:10042000C668A6438C68AC403443C4604C68E400A2
:100430004CD52B4C256E45F001052566246E23F026
:10044000030504F001040094264C2E19B4689D079E
:100450004FEA157C09FA0CF5AC43B0F1904F05D08A
:10046000214DA84204D1012508E02FE0002505E038
:100470001E4DA84201D1022500E0072505FA0CF522
:100480002543B560DBF800405D464E689443F603B3
:1004900000D514432C60DEF8004075464E68944346
:1004A000B60300D514432C600C4D08352C684E68FB
:1004B0009443F60200D514432C60084D0C352C688B
:1004C0004E689443B60200D514432C605B1C0A6846
:1004D00032FA03F47FF454AF00F00AB8000401408C
:1004E00000100240000001400004004800080048DD
:1004F00018BCBDE8E08F42690A4201D081627047B2
:10050000816170470AB18161704781627047000064
:100510000148806870470000080000200248816898
:1005200042681144816070470800002010B5002423
:10053000032000F071F8002000F008F808B1012451
:1005400001E000F025F8204610BD000070B50E4E09
:1005500005460024706898B14FF47A71B1FBF0F051
:100560000A490968B1FBF0F000F082FD40B9102D96
:1005700006D200222946501E00F02EF8356000E019
:100580000124204670BD0000080000201400002057
:10059000094808B5016E41F001010166016E01F0E4
:1005A00001010091816D41F080518165806D00F005
:1005B0008050009008BD000000100240002809DBB8
:1005C00000F01F02012191404009800000F1E0206D
:1005D000C0F8001170470000F0B40E4B1B680C46C9
:1005E000C3F30223C3F10705042D00D90425191D07
:1005F000072901D2002300E0DB1E012606FA05F1DF
:10060000491E214099409E40761E16403143F0BC61
:1006100001F023BE0CED00E0064900F00702086877
:100620004FF6FF03184040EA0220034A10430860D7
:10063000704700000CED00E00000FA051649B0F527
:10064000007F0868C0F3412009D0022805D008685F
:1006500020F4C06040F480600860002070470128EA
:10066000FBD0086820F4C06040F4007008600B48BC
:100670003222006850430A4AB0FBF2F0401C00E00E
:10068000401E4A69520501D50028F9D14869400544
:10069000E3D50320704700000070004014000020E4
:1006A00040420F000248006800F4C060704700003C
:1006B000007000402DE9F84F0446002700889C4D4B
:1006C0003E46000515D5E06B60B1B0F5000F04D0D3
:1006D000B0F5400F2BD001270AE0E86840F48030E5
:1006E000E86024E00021201D01F06CF907001ED015
:1006F0003E462068800338D5A86D4FF00008C00042
:1007000009D4A86D40F08050A865A86D4FF001088D
:1007100000F080500090DFF81CA2DAF8001041F4DD
:100720008071CAF80010FFF7F3FE814610E0D5F89B
:100730008800E16B20F440000843C5F88800D8E742
:10074000FFF7E6FEA0EB0900022801D9032704E029
:10075000DAF80000C005F3D5EFB33E46B8F1000F5C
:1007600003D0A86D20F08050A8652078C00707D07E
:10077000D5F88800216A20F003000843C5F88800F6
:100780002078800707D5D5F88800616A20F00C0032
:100790000843C5F888002078800607D5D5F888007A
:1007A000A16A20F440600843C5F8880020888005CD
:1007B00007D5D5F88800616B20F440200843C5F8C0
:1007C00088002088400509D5D5F88800A16B20F461
:1007D0004010084300E02EE0C5F88800207840066D
:1007E00007D5D5F88800E16A20F440500843C5F8E1
:1007F00088002088C00507D5D5F88800216B20F433
:1008000040300843C5F8880020884FF00067800416
:100810004FF080684ED5D5F88800216C20F04060FC
:100820000843C5F88800206CB8423BD1E86840F422
:100830008010E8603EE0D5F8900010F4407014D0CD
:10084000216D814211D0D5F89000D5F8901020F498
:10085000407041F48031C5F89010D5F8901021F423
:100860008031C5F89010C5F89000C00711D0FFF78F
:100870004FFE074641F2883907E000BFFFF748FE08
:10088000C11B494501D9032668E7D5F890008007C8
:10089000F4D5D5F89000216D20F440700843C5F8D8
:1008A00090005BE7404505D10121201D01F08AF849
:1008B00000B106462068400317D5D5F88800616C62
:1008C00020F040600843C5F88800606CB84204D14D
:1008D000E86840F48010E86007E0404505D1012158
:1008E000201D01F06FF800B106462088400411D5A4
:1008F000D5F88800A16C20F040500843C5F8880066
:10090000A06CB0F1805F05D10221201D01F05AF8E2
:1009100000B106462088000406D555F8880FE16C22
:1009200020F0804008432860304600F005B8000001
:10093000001002400070004018BCBDE8E08F0000CD
:100940002DE9F0470F46050058D0404E306800F0C2
:100950000700B84209D2306820F007003843306001
:10096000306800F00700B84248D12878384CC007FA
:100970002CD06868032811D0022812D0216898B1C1
:10098000490500293ADAA16821F003010143A16079
:10099000FFF7BEFD804641F2883910E021688901E9
:1009A000EFE721688903ECE78907EAE7FFF7B0FD85
:1009B000A0EB0801494502D90320BDE8F087A068F3
:1009C000696800F00C00B0EB810FEFD12878800748
:1009D00005D5A068A96820F0F0000843A060306841
:1009E00000F00700B8420BD9306820F00700384308
:1009F0003060306800F00700B84201D00120DCE729
:100A00002878400705D5A068E96820F4E06008432D
:100A1000A0602878000706D5A068296920F46050F6
:100A200040EAC100A06000F03FF8A168094AC1F3A4
:100A30000311515C01F01F01C840074908600748D5
:100A40000068BDE8F047FFF781BD000000200240CC
:100A50000010024058230008140000200800002065
:100A60000548064900688968054AC1F30221515CBE
:100A700001F01F01C8407047140000200010024020
:100A8000982300080548064900688968054AC1F3AB
:100A9000C221515C01F01F01C840704714000020C2
:100AA000001002409823000870B52549002318461D
:100AB0008A68CC6812F00C0204F00306214C4FEA5D
:100AC000640509D00C2A05D0042A32D0082A00D1A6
:100AD000284670BD012E10D10B681B0704D4D1F835
:100AE0009430C3F3032302E00B68C3F30313164EE1
:100AF00056F82330DAB10C2AEBD1C86800F00300B5
:100B0000022818D0032818D01846CA68CB68C2F348
:100B10000212C3F306234343521CB3FBF2F2C8682C
:100B2000C0F34160401C4000B2FBF0F070BD1846BD
:100B300070BD204670BD2046E7E72846E5E7000087
:100B4000001002400024F400682300082DE9F84357
:100B500004006ED0FD4DA86800F00C06E86800F0B7
:100B600003072078C00663D576B10C2E01D1012F82
:100B70000AD0A0690028286878D040F001002860D9
:100B8000FFF7C6FC80465BE02868800702D5A069B5
:100B90000028DED0216A2868000703D5286800F005
:100BA000F00004E0D5F89400F02202EA101081422F
:100BB00016D9084600F09CFF00283AD1286840F07A
:100BC000080028602868216A20F0F00008432860A7
:100BD0006868E16920F47F4040EA0120686015E020
:100BE000286840F0080028602868216A20F0F0009A
:100BF000084328606868E16920F47F4040EA0120EA
:100C00006860206A00F074FF0028D6D1FFF74CFF1F
:100C1000A968CF4AC1F30311515C01F01F01C8401C
:100C2000CC490860CC480068FFF790FC00287DD1D3
:100C30002DE0C9E0FFF76CFCA0EB0800022876D895
:100C400028688007F6D5286840F0080028602868E2
:100C5000216A20F0F000084328606868E16920F408
:100C60007F4040EA0120686011E0FFE720F00100CA
:100C70002860FFF74DFC804606E000BFFFF748FC08
:100C8000A0EB08000228DAD828688007F6D420787C
:100C9000C00740D0082E18D00C2E01D1032F14D03D
:100CA0006068B0F5803F17D0B0F5A02F286817D046
:100CB00020F480302860286820F480202860606854
:100CC000E0B1FFF725FC804614E02868800322D5B8
:100CD0006068002878D01EE0286840F48030EDE796
:100CE00040F480202860F7E7FFF712FCA0EB080033
:100CF0006428A4D828688003F6D50CE0FFF708FC28
:100D0000804605E0FFF704FCA0EB0800642896D8B5
:100D100028688003F6D4207880073BD5042E11D0B4
:100D20000C2E01D1022F0DD0E06801E064E1B8E0A3
:100D3000002828681ED040F480702860FFF7E8FB88
:100D400007460CE0286840050CD5E0680028C1D0B3
:100D500008E000BFFFF7DCFBC01B022893D828681F
:100D60004005F7D56868217C20F0F85040EA016022
:100D700068600FE020F480702860FFF7C9FB074629
:100D800005E000BFFFF7C4FBC01B0228B1D82868EC
:100D90004005F7D42078000729D560690028D5F8E8
:100DA000940012D040F00100C5F89400FFF7B0FBAA
:100DB000074604E0FFF7ACFBC01B022871D8D5F84A
:100DC00094008007F6D512E04CE120F00100C5F850
:100DD0009400FFF79DFB074605E000BFFFF798FB77
:100DE000C01B02285DD8D5F894008007F6D420787F
:100DF000400766D5A86D0027C00008D4A86D40F054
:100E00008050A865A86D012700F0805000905348DD
:100E10000168C90512D40168814641F480710160FE
:100E2000FFF776FB804605E0FFF772FBA0EB0800BA
:100E3000022836D8D9F80000C005F5D5A0680128E9
:100E400016D00528D5F8900017D020F00100C5F87D
:100E50009000D5F8900020F0040000BFC5F8900085
:100E6000A06841F28839C0B1FFF752FB80460FE01D
:100E7000D5F8900040F00100F0E740F00400C5F81C
:100E80009000F5E7FFF744FBA0EB0801494508D8BF
:100E9000D5F890008007F5D50EE0FFF739FB8046C6
:100EA00006E07CE0FFF734FBA0EB0801494576D86B
:100EB000D5F890008007F5D41FB1A86D20F08050C0
:100EC000A8652078800628D5606A0028D5F89800A3
:100ED00012D040F00100C5F89800FFF719FB074653
:100EE00005E000BFFFF714FBC01B022857D8D5F858
:100EF00098008007F6D510E020F00100C5F89800B2
:100F0000FFF706FB074604E0FFF702FBC01B0228C1
:100F100071D8D5F898008007F6D4A06AF0B30C2EEB
:100F200071D00228286820F0807028601AD02868C4
:100F3000000103D4E86820F00300E860E86808498D
:100F40000840E860FFF7E4FA044657E0001002406A
:100F50005823000814000020080000200070004002
:100F6000FFFFEEFEFFF7D4FA064604E0FFF7D0FAE3
:100F7000801B02283FD828688001F7D4F4E90B01D0
:100F80006FF00F0202EB01110843218A4908520455
:100F900002EB4151A26841EA022101E064E02AE04B
:100FA0000843217D4FF07E42490802EB416108432E
:100FB000217B40EAC160E9682C4A11400843E8609F
:100FC000286840F080702860E86840F08070E86031
:100FD000FFF79EFA044604E0FFF79AFA001B022886
:100FE00009D828688001F7D53EE000BFFFF790FAE6
:100FF000001B022802D90320BDE8F883286880017D
:10100000F4D431E0FFE70128F6D0E868E26A00F0A6
:101010000301914226D1216B00F0700209011039C1
:1010200091421FD1626B00F4FE41B1EB022F19D146
:1010300094F8382000F07841B1EBC26F12D1A18F43
:1010400000F4C00249084905A1F50011914209D1F7
:1010500094F8401000F0C06049084906A1F1007101
:10106000814201D00120C7E70020C5E78C809D01A7
:1010700010B5401EB0F1807F01D3012010BD4FF0AC
:10108000E02460610F21601701F0E7F80020A06103
:1010900007202061002010BD704770477047000096
:1010A00070B590F83C20012A21D0012480F83C4002
:1010B000022280F83D2003685A689D680D4EB342B5
:1010C00003D122F470064A68324322F070060A689F
:1010D0008968324325F0800529435A60026891608F
:1010E00080F83D40002180F83C10084670BD022089
:1010F00070BD0000002C01402DE9F0410446007F46
:1011000001281ED1184D4FF090434FF6F576287800
:10111000C8B1012815D1206800274762012210219B
:101120001846FFF7EFF92F702068016A314001621D
:101130002068016A01620D480068C16821F002015F
:10114000C160BDE8F08101202870002210211846FE
:10115000FFF7D8F92068016A314001622068016A0E
:1011600041F002010162ECE700000020F81F0020BE
:101170002DE9F041044690F83C000D4601283DD091
:10118000012684F83C60022084F83D00AAB3042ABA
:1011900046D02068082A55D0D5E90027E968036AB7
:1011A00023F480530362D0F81CC0036A2CF4407C03
:1011B0004CEA07274FF6FF7C27F470470CEA013111
:1011C00039434FF4204723F4204307EA02321A43FD
:1011D000C16102622068C16921F44061C161206877
:1011E000C169AA6841EA0221C0F81C1084F83D6078
:1011F000002084F83C00BDE8F08101E00220FAE71D
:10120000D5E90012EB68206800F0BAFD206881691A
:1012100021F00C01816120688169AA6811430FE007
:10122000D5E90012EB68206800F0D2FD20688169E2
:1012300021F44061816120688169AA6841EA022144
:101240008161D3E7D5E9002C2F7B016A21F48071FD
:101250000162C169036A21F0030141EA0C0121F036
:10126000F00C39074FF420674CEA116123F4206336
:1012700007EA02221A43C16102622068C16921F0B3
:101280000C01C1612068C169AA681143ACE710B5BF
:10129000040003D094F83D0010B107E0012010BD18
:1012A000002084F83C00204600F00CF8022084F86E
:1012B0003D00211D206800F01FFD012084F83D0045
:1012C000002010BD10B586B0044614216846FEF714
:1012D000B6FF17492068884227D11648016E41F4AD
:1012E00000610166016E01F400610591C16C41F07D
:1012F0000101C164C06C694600F0010005904FF423
:101300008070009002200190002002900390012044
:1013100004904FF09040FFF725F8002211461B2063
:10132000FFF75AF91B20FFF749F906B010BD00007E
:10133000002C01400010024010B50268044631B193
:10134000042908D008291DD00C2908D11EE0D06836
:1013500040F0020002E0D06840F00400D0600122BA
:10136000206800F0FFFC206881680A4A11400629C5
:1013700006D0B1F5803F03D0016841F00101016062
:10138000002010BDD06840F00800E7E7D06840F0CA
:101390001000E3E70700010070B50446006801692A
:1013A0004FF00005C943890715D4C168C9438907AF
:1013B00011D4E91E0161012020772068806980072F
:1013C000204602D0FFF798FE04E000F0A7F8204680
:1013D00000F0A5F8257720680169C943490717D4AB
:1013E000C168C943490713D46FF0040101610220A9
:1013F00020772068806910F4407F204602D0FFF7F4
:101400007BFE04E000F08AF8204600F088F825779B
:1014100020680169C943090716D4C168C94309078F
:1014200012D46FF008010161042020772068C069A0
:101430008007204602D0FFF75FFE04E000F06EF860
:10144000204600F06CF8257720680169C943C90679
:1014500017D4C168C943C90613D46FF010010161E4
:10146000082020772068C06910F4407F204602D011
:10147000FFF742FE04E000F051F8204600F04FF87C
:10148000257720680169C943C90708D1C168C943E4
:10149000C90704D1891E0161204600F041F8206887
:1014A0000169C943090609D4C168C943090605D4BD
:1014B0006FF0800101612046FFF7EFFD20680169B0
:1014C000C943C90509D4C168C943090605D46FF4E5
:1014D000807101612046FFF7DFFD20680169C94383
:1014E000490609D4C168C943490605D46FF04001D3
:1014F0000161204600F015F820680169C94389069A
:101500000BD4C168C943890607D46FF0200101617B
:101510002046BDE87040FFF7C1BD70BD7047704701
:1015200070477047704770472DE9F04102680446E4
:10153000D0691168936810F00F0F4FF000055BD071
:1015400003F0010601F49077374369D0C70707D04D
:10155000CF0505D501271762E26F42F00102E2676D
:10156000820708D5DA0706D0276802223A62E26FBE
:1015700042F00402E267420708D5DA0706D0236882
:1015800004221A62E26F42F00202E26702070AD501
:1015900001F02002324306D0236808221A62E26F6B
:1015A00042F00802E267E26F002A32D0800605D5D9
:1015B000880603D5216E09B120468847E06F21686F
:1015C0008968490601D4000725D5204600F0E4FCCF
:1015D00020688168490619D5816821F04001816041
:1015E000E06E98B120498163E06EFEF781FE00282D
:1015F0000FD0E06E816B06E0860611D58E060FD502
:10160000216E1EE02046BDE8F04108472046FFF766
:101610008AFFBDE8F0812046FFF785FFE567F8E720
:10162000C60209D55B0207D54FF480101062204630
:10163000BDE8F041FFF776BF030605D50B0603D5DD
:10164000616E0029DED1E4E74006E2D54806E0D528
:101650001168204621F04001116020216167656614
:1016600000F0EAF8D5E70000851F000810B5040077
:1016700002D0606F10B107E0012010BD002084F897
:101680007000204600F026F824206067206801687A
:1016900021F001010160204600F08EFC0128ECD011
:1016A000606A10B1204600F0DDFB2068416821F43B
:1016B000904141602068816821F02A0181602068A2
:1016C000016841F0010101602046BDE8104000F0D2
:1016D0002DBC0000F0B587B0044614216846FEF723
:1016E000AEFD254F26680022244902230324072546
:1016F0004FF09040BE4222D10E6E46F480460E66F8
:101700000E6E06F480460596CE6C46F00106CE6459
:10171000C96C02AE01F0010105916102CDE900132F
:1017200086E834006946FEF71DFE0022114625209A
:10173000FEF752FF2520FEF741FF07B0F0BD104F26
:10174000BE42FAD18E6D46F400368E658E6D06F47B
:1017500000360596CE6C46F00106CE64C96C02AE2A
:1017600001F0010105910C21CDE9001386E8340058
:101770006946FEF7F7FDE0E700380140001002403F
:10178000004400402DE9F8430446406F1F461646CA
:101790000D4620284ED1CDB1C6B194F87000012875
:1017A00048D0012084F870004FF00008C4F87C8015
:1017B00021206067FEF7ACFEA4F850608146A4F8D3
:1017C0005260A068B0F5805F03D004E00120BDE85E
:1017D000F883206910B12E46002510E000260EE0A7
:1017E0008021204600F002FDB8B9C6B116F8010B01
:1017F00021680885B4F85200401EA4F85200B4F8DD
:1018000052004B464FF0000200970028E8D14FF0FD
:101810004001204600F0EAFC30B10320D7E735F85C
:10182000020BC0F30800E3E72020606784F87080B3
:101830000020CCE70220CAE77047FEE7F0B587B08A
:1018400014216846FEF7FBFC1D48C16C41F0010104
:10185000C164C16C01F001010591C16C41F002014C
:10186000C164C06C4FF0904600F002000590002269
:1018700011213046FEF746FE124F0022082138465D
:10188000FEF740FE1120009001250024CDE901540F
:10189000694630460394FEF765FD0220CDE9000459
:1018A000694630460294FEF75DFD08200090CDE9C0
:1018B0000154694638460394FEF754FD07B0F0BD65
:1018C000001002400004004810B588B000241548FC
:1018D000059406940494009401940294104903948E
:1018E00001604721C0E901144FF6FE71C0E90314FD
:1018F00044618461FFF7CBFC0494059404A9094872
:101900000694FFF7CDFB0120CDE9004002940022B0
:10191000694604480394FFF72BFC08B010BD000093
:10192000002C0140F81F00200948084901604FF4CD
:1019300016514160002181600C22C160C0E904128F
:101940008161C16101624162FFF790BE00380140D0
:10195000382000200948084901604FF4E131416016
:10196000002181600C22C160C0E904128161C16163
:1019700001624162FFF77ABE00440040B8200020B7
:10198000FEE770477047000010B50346401E0C4646
:10199000072811D8094800F0B9FC084950B101EBFB
:1019A0000010C0E9003406484168BDE81040034813
:1019B00000F072BCC1E9003410BD00001800002026
:1019C000000000202DE9F041444C05468846E068BF
:1019D0000026810728680DD0E16801F003018142EB
:1019E00016D1A8B1E0686968C0F30210401C8842B3
:1019F0000ED120E0012804D0022805D0032807D109
:101A000008E02168890701E021684905002907DB12
:101A100001265FE02168890302D421684903F5E7C4
:101A2000E1686A686FF00F0321F0730103EB0212A3
:101A300011430143E160206820F080602060FEF7E0
:101A400067FD074605E000BFFEF762FDC01B0228E8
:101A500037D820680001F7D4B8F1000F18D0B8F1DA
:101A6000010F1DD0287D4FF07E41400801EB406002
:101A7000A96840EA01202169194A11400843206100
:101A8000206840F080602060FEF742FD07461AE0C3
:101A9000A868297B000240EAC1602169114AECE78D
:101AA000288A1149400801EB4050A96840EA01200A
:101AB00021690E4AE1E700BFFEF72AFDC01B02289C
:101AC00001D9032606E020680001F5D52069A9693F
:101AD000084320613046BDE8F0810000001002405C
:101AE000FF80FFF9FF80FF070000E0FFFF809FFFFE
:101AF000F8B51C4D06460024A86DC00002D5FEF7BF
:101B0000D1FD0DE0A86D40F08050A865A86D00F0F3
:101B100080500090FEF7C6FDA96D21F08051A965A7
:101B2000B0F5007F04D0802E07D94FF003040AE0FF
:101B3000802E08D9A02E01D804E001D1022402E0B1
:101B4000702E00D101240848016821F007012143CB
:101B50000160006800F00700A04201D00120F8BD3C
:101B60000020F8BD001002400020024011B581B0F5
:101B70000D4C019890B10D4800F0C8FB00900B4847
:101B8000009A216800EB02100160616841600199D0
:101B9000A1608160FEF7BCFCE0601CBDD4E90001DF
:101BA000BDE81C40FFF7F0BE3821002008100020DF
:101BB000704700007CB5FEF7B1FC194800F0A6FBA9
:101BC000054618A0164E00680090174800244FF0F4
:101BD0000A030068019015484FF00102007820B117
:101BE00001A91348FFF7CEFD16E06946F9E700BFEB
:101BF00006EB04108168491E81600CD103C8FFF711
:101C0000C3FE2A460649204600F08AFB04460448E3
:101C100000F07CFB0546641CAC42E9DB7CBD0000A7
:101C200008100020310000005423000800000020AC
:101C3000B820002030B5ABB044216846FEF7FFFA6B
:101C4000142126A8FEF7FBFA542111A8FEF7F7FA93
:101C50000220C10103911021009004910A900121FA
:101C6000CDE90B0109210D910721CDE90E1010904E
:101C70006846FEF76BFF0F20269003250024CDE970
:101C800027542994042126A82A94FEF759FE199472
:101C900011A811951A94FEF70DFD4FF40070FEF790
:101CA000CDFC2BB030BD00000D48016841F470013F
:101CB00001600C48016841F0010101600021816070
:101CC0000268094B1A4002608214C260026822F462
:101CD0008022026081610249C00380390860704738
:101CE00088ED00E000100240FFFFF6EA0148FFF730
:101CF00053BB0000F81F002070B50268164B4FF070
:101D00008046984201D0B04203D122F070044A6864
:101D10002243124C124D984205D0B04203D0A0424B
:101D200001D0A84203D122F44076CA6832434E69FA
:101D300022F08002324302608A68C2620A688262CC
:101D4000984203D0A04201D0A84201D109690163A1
:101D50000121416170BD0000002C014000400140A4
:101D60000044014010B501F01F030121046A9940AD
:101D70008C430462016A9A401143016210BD000065
:101D800070B5046A24F0010404628469056A0E4E89
:101D9000B04205D0B0F1804F02D00C4EB04203D11A
:101DA00024F00304144301E044F001041A0724F072
:101DB000F00444EA126225F00A0301F00A01194313
:101DC0008261016270BD0000002C014000400140B2
:101DD00030B5046A24F0100404628469056A24F4AE
:101DE000407444EA022222F470444FF6FF7202EA81
:101DF00003322243A02425F0A00304EA0111194371
:101E00008261016230BD000010B500210448FFF777
:101E100093FABDE8104008210248FEF76CBB0000B1
:101E2000F81F00200004004810B501224FF0904434
:101E300011462046FEF766FB0A20FEF781FA0022D3
:101E400001212046FEF75EFB05480068C16841F0AD
:101E50000201C160BDE810400520FFF787BE000009
:101E6000F81F002090F82410C90706D001684A68BE
:101E7000836A22F400321A434A6090F824108907DA
:101E800006D501684A68C36A22F480321A434A6060
:101E900090F82410490706D501684A68036B22F4BC
:101EA00080221A434A6090F82410090706D5016879
:101EB0004A68436B22F400421A434A6090F82410A7
:101EC000C90606D501688A68836B22F480521A43DA
:101ED0008A6090F82410890606D501688A68C36B69
:101EE00022F400521A438A6090F82410490611D552
:101EF00001684A68036C22F480121A434A60016C3C
:101F0000B1F5801F06D101684A68436C22F4C00213
:101F10001A434A6090F82410090606D501684A68F9
:101F2000806C22F4002202434A607047F8B5002614
:101F30000446C667FEF7ECFA0546206800686FF0B5
:101F40007E47000708D52B4600224FF4001120469B
:101F5000009700F04BF960B92068006840070AD587
:101F60002B4600224FF480012046009700F03EF9F6
:101F700008B10320F8BD20206067A06784F8706076
:101F80000020F8BD10B5806A0021A0F85A10A0F812
:101F90005210FFF7C8FA10BD01680A6822F4907267
:101FA0000A6001688A6822F001028A602021816744
:101FB00000210166704700002DE9F04104460268E7
:101FC00080682369E5691843636900272B43184338
:101FD0007D4913687D4D2B400343136020684268A0
:101FE000E36822F440521A4342602268A0698A42A0
:101FF00001D0236A1843936823F43063034393604A
:10200000734A2368734893420DD1D0F8880010F0CA
:10201000030006D0012838D0022834D0032821D16B
:1020200035E001251FE06C4A93420BD1D0F88800BF
:1020300010F00C0025D0042827D0082823D00C2825
:1020400010D124E08B420DD1D0F8880010F440600C
:1020500017D0B0F5806F18D0B0F5006F13D0B0F581
:10206000406F14D010255D4A00264FF400408B428B
:1020700045D175B1022D0FD0042D0FD0082D18D1E8
:102080000FE00025EFE70225EDE70425EBE7082543
:10209000E9E7FEF7E5FC03E0104602E0FEF704FD89
:1020A000A8B3626802EB4201814202D8B0EB023F62
:1020B00001D9012775E0DFF828815DB1022D0CD030
:1020C000042D13D0082DF4D150082905401846F1ED
:1020D000000105E0FEF7C4FC0AE050084149F5E7BD
:1020E0000023FEF771F8A0F5407156E0FEF7DCFC26
:1020F0006268010E0302500818187141F0E7E169A7
:102100004FF6EF7881422FD1092DD2D200E048E07E
:10211000DFE805F006092005230505052600C8E7C8
:10212000FEF79EFC01E0FEF7ADFC4100D4F8040090
:1021300001EB5001B1FBF0F080B2A0F1100141457C
:10214000B7D84FF6F0710140C0F342000143206858
:10215000C16026E024496068EAE7FEF7A5FCE4E7F1
:102160004FF480316068E3E7092DA2D2DFE805F083
:1021700006091E052205050525009AE7FEF770FCF5
:1021800001E0FEF77FFC0146606801EB500100BFF3
:10219000B1FBF0F080B2A0F11001414589D821686F
:1021A000C860266638466666BDE8F081606802EB66
:1021B0005001EDE7FEF778FCE5E7616800EB5100C0
:1021C000B0FBF1F0E6E7000000800040F369FFEFAC
:1021D0000038014000100240004400400024F40098
:1021E000FFFC0F00000024F40048E8012DE9F04155
:1021F000984617460E460446069D08E0681C06D021
:10220000FEF786F9A0EB0800A8420BD855B120686C
:10221000C06936EA000017D00020B842EED0002096
:10222000BDE8F0812068016821F4D0710160206868
:10223000816821F00101816020206067A067002093
:1022400084F870000320EBE70120E6E70148FFF780
:102250006BB9000038200020FEE70907090E0028AE
:1022600004DB00F1E02080F80014704700F00F005C
:1022700000F1E02080F8141D704702E008C8121F2A
:1022800008C1002AFAD170477047002001E001C15F
:10229000121F002AFBD170472DE9F0430025884624
:1022A00081464F1E12E00024A8EB0506761E0AE0C8
:1022B00009EB041002690168914203DD00F110018D
:1022C00000F03EF8641CA642F2DC6D1CBD42EADB65
:1022D000BDE8F083FEF72AF9FFF7ACFCFFF7AEFA92
:1022E000FFF722FBFFF736FBFFF7EEFA0549012067
:1022F000FFF74AFB04490220FFF746FBFDF7DEFF2C
:10230000FCE70000091E0008291E00080146002005
:1023100000E0401C01EB00125268002AF9D170471E
:10232000F0B5002309E000BF01EB031404F1100530
:102330005B1C95E8E01084E8E0109342F4DBF0BD0C
:10234000F0B590E83C0091E8C05080E8C05081E8CA
:102350003C00F0BD30000000000000000000000064
:102360000102030406070809A0860100400D0300CE
:10237000801A060000350C0040420F0080841E00C9
:1023800000093D0000127A000024F40000366E01BE
:102390000048E801006CDC020000000001020304B8
:1023A000C023000800000020180000007A22000866
:1023B000D823000818000020302500008A220008D9
:1023C00000000000000000001000000001000000FC
:0823D0000000000000093D00BF
:040000050800018D61
:00000001FF
